{
  "abi": [
    {
      "anonymous": false,
      "inputs": [
        {
          "indexed": false,
          "internalType": "address",
          "name": "userAddress",
          "type": "address"
        },
        {
          "indexed": false,
          "internalType": "address payable",
          "name": "relayerAddress",
          "type": "address"
        },
        {
          "indexed": false,
          "internalType": "bytes",
          "name": "functionSignature",
          "type": "bytes"
        }
      ],
      "name": "MetaTransactionExecuted",
      "type": "event"
    },
    {
      "inputs": [
        {
          "internalType": "address",
          "name": "userAddress",
          "type": "address"
        },
        {
          "internalType": "bytes",
          "name": "functionSignature",
          "type": "bytes"
        },
        {
          "internalType": "bytes32",
          "name": "sigR",
          "type": "bytes32"
        },
        {
          "internalType": "bytes32",
          "name": "sigS",
          "type": "bytes32"
        },
        {
          "internalType": "uint8",
          "name": "sigV",
          "type": "uint8"
        }
      ],
      "name": "executeMetaTransaction",
      "outputs": [
        {
          "internalType": "bytes",
          "name": "",
          "type": "bytes"
        }
      ],
      "stateMutability": "payable",
      "type": "function"
    },
    {
      "inputs": [],
      "name": "getChainID",
      "outputs": [
        {
          "internalType": "uint256",
          "name": "",
          "type": "uint256"
        }
      ],
      "stateMutability": "view",
      "type": "function"
    },
    {
      "inputs": [
        {
          "internalType": "address",
          "name": "user",
          "type": "address"
        }
      ],
      "name": "getNonce",
      "outputs": [
        {
          "internalType": "uint256",
          "name": "nonce",
          "type": "uint256"
        }
      ],
      "stateMutability": "view",
      "type": "function"
    },
    {
      "inputs": [
        {
          "internalType": "address",
          "name": "owner",
          "type": "address"
        },
        {
          "internalType": "uint256",
          "name": "nonce",
          "type": "uint256"
        },
        {
          "internalType": "uint256",
          "name": "chainID",
          "type": "uint256"
        },
        {
          "internalType": "bytes",
          "name": "functionSignature",
          "type": "bytes"
        },
        {
          "internalType": "bytes32",
          "name": "sigR",
          "type": "bytes32"
        },
        {
          "internalType": "bytes32",
          "name": "sigS",
          "type": "bytes32"
        },
        {
          "internalType": "uint8",
          "name": "sigV",
          "type": "uint8"
        }
      ],
      "name": "verify",
      "outputs": [
        {
          "internalType": "bool",
          "name": "",
          "type": "bool"
        }
      ],
      "stateMutability": "view",
      "type": "function"
    }
  ],
  "bytecode": {
    "object": "0x608060405234801561001057600080fd5b5061078d806100206000396000f3fe60806040526004361061003f5760003560e01c80630c53c51c146100445780632d0335ab1461006d578063564b81ef146100b15780636281133d146100c4575b600080fd5b6100576100523660046104f3565b6100f4565b60405161006491906105b5565b60405180910390f35b34801561007957600080fd5b506100a36100883660046105c8565b6001600160a01b031660009081526020819052604090205490565b604051908152602001610064565b3480156100bd57600080fd5b50466100a3565b3480156100d057600080fd5b506100e46100df3660046105e3565b6102c6565b6040519015158152602001610064565b6001600160a01b03851660009081526020819052604090205460609061012090879046888888886102c6565b61017b5760405162461bcd60e51b815260206004820152602160248201527f5369676e657220616e64207369676e617475726520646f206e6f74206d6174636044820152600d60fb1b60648201526084015b60405180910390fd5b6001600160a01b03861660009081526020819052604090205461019f90600161040e565b6001600160a01b0387166000908152602081815260408083209390935591519091829130916101d2918a918c9101610668565b60408051601f19818403018152908290526101ec9161069f565b6000604051808303816000865af19150503d8060008114610229576040519150601f19603f3d011682016040523d82523d6000602084013e61022e565b606091505b5091509150816102805760405162461bcd60e51b815260206004820152601c60248201527f46756e6374696f6e2063616c6c206e6f74207375636365737366756c000000006044820152606401610172565b7f5845892132946850460bff5a0083f71031bc5bf9aadcd40f1de79423eac9b10b8833896040516102b3939291906106bb565b60405180910390a1979650505050505050565b600080610343883089896040516020016102e394939291906106f0565b60408051601f1981840301815282825280516020918201207f19457468657265756d205369676e6564204d6573736167653a0a33320000000084830152603c8085019190915282518085039091018152605c909301909152815191012090565b6040805160008082526020820180845284905260ff87169282019290925260608101889052608081018790529192509060019060a0016020604051602081039080840390855afa15801561039b573d6000803e3d6000fd5b5050604051601f1901519150506001600160a01b0381166103f25760405162461bcd60e51b8152602060048201526011602482015270496e76616c6964207369676e617475726560781b6044820152606401610172565b6001600160a01b038a8116911614915050979650505050505050565b600061041a8284610736565b90505b92915050565b80356001600160a01b038116811461043a57600080fd5b919050565b634e487b7160e01b600052604160045260246000fd5b600082601f83011261046657600080fd5b813567ffffffffffffffff808211156104815761048161043f565b604051601f8301601f19908116603f011681019082821181831017156104a9576104a961043f565b816040528381528660208588010111156104c257600080fd5b836020870160208301376000602085830101528094505050505092915050565b803560ff8116811461043a57600080fd5b600080600080600060a0868803121561050b57600080fd5b61051486610423565b9450602086013567ffffffffffffffff81111561053057600080fd5b61053c88828901610455565b9450506040860135925060608601359150610559608087016104e2565b90509295509295909350565b60005b83811015610580578181015183820152602001610568565b50506000910152565b600081518084526105a1816020860160208601610565565b601f01601f19169290920160200192915050565b60208152600061041a6020830184610589565b6000602082840312156105da57600080fd5b61041a82610423565b600080600080600080600060e0888a0312156105fe57600080fd5b61060788610423565b96506020880135955060408801359450606088013567ffffffffffffffff81111561063157600080fd5b61063d8a828b01610455565b9450506080880135925060a0880135915061065a60c089016104e2565b905092959891949750929550565b6000835161067a818460208801610565565b60609390931b6bffffffffffffffffffffffff19169190920190815260140192915050565b600082516106b1818460208701610565565b9190910192915050565b6001600160a01b038481168252831660208201526060604082018190526000906106e790830184610589565b95945050505050565b8481526bffffffffffffffffffffffff198460601b16602082015282603482015260008251610726816054850160208701610565565b9190910160540195945050505050565b8082018082111561041d57634e487b7160e01b600052601160045260246000fdfea26469706673582212203da9c3aa189a0d0cebff0064f0e94e049d7437de49bcb8b5c789c0759780643864736f6c63430008110033",
    "linkReferences": {}
  },
  "methodIdentifiers": {
    "executeMetaTransaction(address,bytes,bytes32,bytes32,uint8)": "0c53c51c",
    "getChainID()": "564b81ef",
    "getNonce(address)": "2d0335ab",
    "verify(address,uint256,uint256,bytes,bytes32,bytes32,uint8)": "6281133d"
  },
  "id": 24
}