{
  "abi": [
    {
      "anonymous": false,
      "inputs": [
        {
          "indexed": true,
          "internalType": "address",
          "name": "owner",
          "type": "address"
        },
        {
          "indexed": true,
          "internalType": "address",
          "name": "approved",
          "type": "address"
        },
        {
          "indexed": true,
          "internalType": "uint256",
          "name": "tokenId",
          "type": "uint256"
        }
      ],
      "name": "Approval",
      "type": "event"
    },
    {
      "anonymous": false,
      "inputs": [
        {
          "indexed": true,
          "internalType": "address",
          "name": "owner",
          "type": "address"
        },
        {
          "indexed": true,
          "internalType": "address",
          "name": "operator",
          "type": "address"
        },
        {
          "indexed": false,
          "internalType": "bool",
          "name": "approved",
          "type": "bool"
        }
      ],
      "name": "ApprovalForAll",
      "type": "event"
    },
    {
      "anonymous": false,
      "inputs": [
        {
          "indexed": false,
          "internalType": "uint8",
          "name": "version",
          "type": "uint8"
        }
      ],
      "name": "Initialized",
      "type": "event"
    },
    {
      "anonymous": false,
      "inputs": [
        {
          "indexed": false,
          "internalType": "address",
          "name": "userAddress",
          "type": "address"
        },
        {
          "indexed": false,
          "internalType": "address payable",
          "name": "relayerAddress",
          "type": "address"
        },
        {
          "indexed": false,
          "internalType": "bytes",
          "name": "functionSignature",
          "type": "bytes"
        }
      ],
      "name": "MetaTransactionExecuted",
      "type": "event"
    },
    {
      "anonymous": false,
      "inputs": [
        {
          "indexed": true,
          "internalType": "address",
          "name": "from",
          "type": "address"
        },
        {
          "indexed": true,
          "internalType": "address",
          "name": "to",
          "type": "address"
        },
        {
          "indexed": true,
          "internalType": "uint256",
          "name": "tokenId",
          "type": "uint256"
        }
      ],
      "name": "Transfer",
      "type": "event"
    },
    {
      "anonymous": false,
      "inputs": [
        {
          "indexed": false,
          "internalType": "uint256",
          "name": "",
          "type": "uint256"
        },
        {
          "indexed": false,
          "internalType": "uint256",
          "name": "",
          "type": "uint256"
        }
      ],
      "name": "minted",
      "type": "event"
    },
    {
      "inputs": [
        {
          "internalType": "address",
          "name": "to",
          "type": "address"
        },
        {
          "internalType": "uint256",
          "name": "tokenId",
          "type": "uint256"
        }
      ],
      "name": "approve",
      "outputs": [],
      "stateMutability": "nonpayable",
      "type": "function"
    },
    {
      "inputs": [
        {
          "internalType": "address",
          "name": "owner",
          "type": "address"
        }
      ],
      "name": "balanceOf",
      "outputs": [
        {
          "internalType": "uint256",
          "name": "",
          "type": "uint256"
        }
      ],
      "stateMutability": "view",
      "type": "function"
    },
    {
      "inputs": [
        {
          "components": [
            {
              "internalType": "address",
              "name": "winery",
              "type": "address"
            },
            {
              "internalType": "uint256",
              "name": "releaseDate",
              "type": "uint256"
            },
            {
              "internalType": "uint256",
              "name": "amount",
              "type": "uint256"
            },
            {
              "internalType": "uint256",
              "name": "royaltyAmount",
              "type": "uint256"
            },
            {
              "internalType": "string",
              "name": "URI",
              "type": "string"
            }
          ],
          "internalType": "struct Struct.NFTData",
          "name": "NFT",
          "type": "tuple"
        }
      ],
      "name": "bulkMint",
      "outputs": [],
      "stateMutability": "nonpayable",
      "type": "function"
    },
    {
      "inputs": [
        {
          "internalType": "uint256",
          "name": "tokenId",
          "type": "uint256"
        },
        {
          "internalType": "uint256",
          "name": "_newDate",
          "type": "uint256"
        }
      ],
      "name": "changeReleaseDate",
      "outputs": [],
      "stateMutability": "nonpayable",
      "type": "function"
    },
    {
      "inputs": [
        {
          "internalType": "uint256",
          "name": "tokenId",
          "type": "uint256"
        }
      ],
      "name": "checkDeadline",
      "outputs": [
        {
          "internalType": "uint256",
          "name": "",
          "type": "uint256"
        }
      ],
      "stateMutability": "view",
      "type": "function"
    },
    {
      "inputs": [
        {
          "internalType": "address",
          "name": "userAddress",
          "type": "address"
        },
        {
          "internalType": "bytes",
          "name": "functionSignature",
          "type": "bytes"
        },
        {
          "internalType": "bytes32",
          "name": "sigR",
          "type": "bytes32"
        },
        {
          "internalType": "bytes32",
          "name": "sigS",
          "type": "bytes32"
        },
        {
          "internalType": "uint8",
          "name": "sigV",
          "type": "uint8"
        }
      ],
      "name": "executeMetaTransaction",
      "outputs": [
        {
          "internalType": "bytes",
          "name": "",
          "type": "bytes"
        }
      ],
      "stateMutability": "payable",
      "type": "function"
    },
    {
      "inputs": [
        {
          "internalType": "uint256",
          "name": "tokenId",
          "type": "uint256"
        }
      ],
      "name": "getApproved",
      "outputs": [
        {
          "internalType": "address",
          "name": "",
          "type": "address"
        }
      ],
      "stateMutability": "view",
      "type": "function"
    },
    {
      "inputs": [],
      "name": "getChainID",
      "outputs": [
        {
          "internalType": "uint256",
          "name": "",
          "type": "uint256"
        }
      ],
      "stateMutability": "view",
      "type": "function"
    },
    {
      "inputs": [
        {
          "internalType": "address",
          "name": "user",
          "type": "address"
        }
      ],
      "name": "getNonce",
      "outputs": [
        {
          "internalType": "uint256",
          "name": "nonce",
          "type": "uint256"
        }
      ],
      "stateMutability": "view",
      "type": "function"
    },
    {
      "inputs": [
        {
          "internalType": "uint256",
          "name": "tokenId",
          "type": "uint256"
        },
        {
          "internalType": "uint256",
          "name": "increament",
          "type": "uint256"
        }
      ],
      "name": "increaseDeadline",
      "outputs": [],
      "stateMutability": "nonpayable",
      "type": "function"
    },
    {
      "inputs": [
        {
          "internalType": "address",
          "name": "_marketPlace",
          "type": "address"
        }
      ],
      "name": "initialize",
      "outputs": [],
      "stateMutability": "nonpayable",
      "type": "function"
    },
    {
      "inputs": [
        {
          "internalType": "address",
          "name": "owner",
          "type": "address"
        },
        {
          "internalType": "address",
          "name": "operator",
          "type": "address"
        }
      ],
      "name": "isApprovedForAll",
      "outputs": [
        {
          "internalType": "bool",
          "name": "",
          "type": "bool"
        }
      ],
      "stateMutability": "view",
      "type": "function"
    },
    {
      "inputs": [],
      "name": "name",
      "outputs": [
        {
          "internalType": "string",
          "name": "",
          "type": "string"
        }
      ],
      "stateMutability": "view",
      "type": "function"
    },
    {
      "inputs": [
        {
          "internalType": "uint256",
          "name": "tokenId",
          "type": "uint256"
        }
      ],
      "name": "ownerOf",
      "outputs": [
        {
          "internalType": "address",
          "name": "",
          "type": "address"
        }
      ],
      "stateMutability": "view",
      "type": "function"
    },
    {
      "inputs": [
        {
          "internalType": "address",
          "name": "from",
          "type": "address"
        },
        {
          "internalType": "address",
          "name": "to",
          "type": "address"
        },
        {
          "internalType": "uint256",
          "name": "tokenId",
          "type": "uint256"
        }
      ],
      "name": "safeTransferFrom",
      "outputs": [],
      "stateMutability": "nonpayable",
      "type": "function"
    },
    {
      "inputs": [
        {
          "internalType": "address",
          "name": "from",
          "type": "address"
        },
        {
          "internalType": "address",
          "name": "to",
          "type": "address"
        },
        {
          "internalType": "uint256",
          "name": "tokenId",
          "type": "uint256"
        },
        {
          "internalType": "bytes",
          "name": "data",
          "type": "bytes"
        }
      ],
      "name": "safeTransferFrom",
      "outputs": [],
      "stateMutability": "nonpayable",
      "type": "function"
    },
    {
      "inputs": [
        {
          "internalType": "address",
          "name": "operator",
          "type": "address"
        },
        {
          "internalType": "bool",
          "name": "approved",
          "type": "bool"
        }
      ],
      "name": "setApprovalForAll",
      "outputs": [],
      "stateMutability": "nonpayable",
      "type": "function"
    },
    {
      "inputs": [
        {
          "internalType": "uint256",
          "name": "tokenId",
          "type": "uint256"
        },
        {
          "internalType": "uint256",
          "name": "time",
          "type": "uint256"
        }
      ],
      "name": "setDeadline",
      "outputs": [],
      "stateMutability": "nonpayable",
      "type": "function"
    },
    {
      "inputs": [
        {
          "internalType": "bytes4",
          "name": "interfaceId",
          "type": "bytes4"
        }
      ],
      "name": "supportsInterface",
      "outputs": [
        {
          "internalType": "bool",
          "name": "",
          "type": "bool"
        }
      ],
      "stateMutability": "view",
      "type": "function"
    },
    {
      "inputs": [],
      "name": "symbol",
      "outputs": [
        {
          "internalType": "string",
          "name": "",
          "type": "string"
        }
      ],
      "stateMutability": "view",
      "type": "function"
    },
    {
      "inputs": [
        {
          "internalType": "uint256",
          "name": "tokenId",
          "type": "uint256"
        }
      ],
      "name": "tokenURI",
      "outputs": [
        {
          "internalType": "string",
          "name": "",
          "type": "string"
        }
      ],
      "stateMutability": "view",
      "type": "function"
    },
    {
      "inputs": [
        {
          "internalType": "address",
          "name": "from",
          "type": "address"
        },
        {
          "internalType": "address",
          "name": "to",
          "type": "address"
        },
        {
          "internalType": "uint256",
          "name": "tokenId",
          "type": "uint256"
        }
      ],
      "name": "transferFrom",
      "outputs": [],
      "stateMutability": "nonpayable",
      "type": "function"
    },
    {
      "inputs": [
        {
          "internalType": "address",
          "name": "owner",
          "type": "address"
        },
        {
          "internalType": "uint256",
          "name": "nonce",
          "type": "uint256"
        },
        {
          "internalType": "uint256",
          "name": "chainID",
          "type": "uint256"
        },
        {
          "internalType": "bytes",
          "name": "functionSignature",
          "type": "bytes"
        },
        {
          "internalType": "bytes32",
          "name": "sigR",
          "type": "bytes32"
        },
        {
          "internalType": "bytes32",
          "name": "sigS",
          "type": "bytes32"
        },
        {
          "internalType": "uint8",
          "name": "sigV",
          "type": "uint8"
        }
      ],
      "name": "verify",
      "outputs": [
        {
          "internalType": "bool",
          "name": "",
          "type": "bool"
        }
      ],
      "stateMutability": "view",
      "type": "function"
    }
  ],
  "bytecode": {
    "object": "0x608060405234801561001057600080fd5b5061243b806100206000396000f3fe60806040526004361061013f5760003560e01c8063564b81ef116100b6578063a69909461161006f578063a699094614610394578063b88d4fde146103b4578063c4d66de8146103d4578063c87b56dd146103f4578063e985e9c514610414578063f71480c61461045d57600080fd5b8063564b81ef146102ec5780636281133d146102ff5780636352211e1461031f57806370a082311461033f57806395d89b411461035f578063a22cb4651461037457600080fd5b80630c53c51c116101085780630c53c51c1461021557806323b872dd146102285780632d0335ab146102485780633c4615dd1461028c57806342842e0e146102ac5780634c764db7146102cc57600080fd5b80629a0b301461014457806301ffc9a71461016657806306fdde031461019b578063081812fc146101bd578063095ea7b3146101f5575b600080fd5b34801561015057600080fd5b5061016461015f366004611a33565b61047d565b005b34801561017257600080fd5b50610186610181366004611a6b565b6104d9565b60405190151581526020015b60405180910390f35b3480156101a757600080fd5b506101b061052b565b6040516101929190611ad8565b3480156101c957600080fd5b506101dd6101d8366004611aeb565b6105bd565b6040516001600160a01b039091168152602001610192565b34801561020157600080fd5b50610164610210366004611b19565b6105e4565b6101b0610223366004611bfe565b61070b565b34801561023457600080fd5b50610164610243366004611c72565b6108da565b34801561025457600080fd5b5061027e610263366004611cb3565b6001600160a01b0316600090815260c9602052604090205490565b604051908152602001610192565b34801561029857600080fd5b506101646102a7366004611cd0565b610912565b3480156102b857600080fd5b506101646102c7366004611c72565b610a80565b3480156102d857600080fd5b506101646102e7366004611a33565b610a9b565b3480156102f857600080fd5b504661027e565b34801561030b57600080fd5b5061018661031a366004611d0b565b610b03565b34801561032b57600080fd5b506101dd61033a366004611aeb565b610c4b565b34801561034b57600080fd5b5061027e61035a366004611cb3565b610cab565b34801561036b57600080fd5b506101b0610d31565b34801561038057600080fd5b5061016461038f366004611d92565b610d40565b3480156103a057600080fd5b5061027e6103af366004611aeb565b610d56565b3480156103c057600080fd5b506101646103cf366004611dd0565b610d7d565b3480156103e057600080fd5b506101646103ef366004611cb3565b610dbc565b34801561040057600080fd5b506101b061040f366004611aeb565b610e2e565b34801561042057600080fd5b5061018661042f366004611e3c565b6001600160a01b039182166000908152606a6020908152604080832093909416825291909152205460ff1690565b34801561046957600080fd5b50610164610478366004611a33565b610f3e565b33600090815260ce602052604090205460ff166104b55760405162461bcd60e51b81526004016104ac90611e6a565b60405180910390fd5b6104be82610ffb565b6104c757600080fd5b600091825260cd602052604090912055565b60006001600160e01b031982166380ac58cd60e01b148061050a57506001600160e01b03198216635b5e139f60e01b145b8061052557506301ffc9a760e01b6001600160e01b03198316145b92915050565b60606065805461053a90611e86565b80601f016020809104026020016040519081016040528092919081815260200182805461056690611e86565b80156105b35780601f10610588576101008083540402835291602001916105b3565b820191906000526020600020905b81548152906001019060200180831161059657829003601f168201915b5050505050905090565b60006105c882611018565b506000908152606960205260409020546001600160a01b031690565b60006105ef82610c4b565b9050806001600160a01b0316836001600160a01b03160361065c5760405162461bcd60e51b815260206004820152602160248201527f4552433732313a20617070726f76616c20746f2063757272656e74206f776e656044820152603960f91b60648201526084016104ac565b806001600160a01b031661066e61106b565b6001600160a01b0316148061068a575061068a8161042f61106b565b6106fc5760405162461bcd60e51b815260206004820152603d60248201527f4552433732313a20617070726f76652063616c6c6572206973206e6f7420746f60448201527f6b656e206f776e6572206f7220617070726f76656420666f7220616c6c00000060648201526084016104ac565b610706838361107a565b505050565b6001600160a01b038516600090815260c960205260409020546060906107379087904688888888610b03565b61078d5760405162461bcd60e51b815260206004820152602160248201527f5369676e657220616e64207369676e617475726520646f206e6f74206d6174636044820152600d60fb1b60648201526084016104ac565b6001600160a01b038616600090815260c960205260409020546107b19060016110e8565b6001600160a01b038716600090815260c9602090815260408083209390935591519091829130916107e6918a918c9101611ec0565b60408051601f198184030181529082905261080091611ef7565b6000604051808303816000865af19150503d806000811461083d576040519150601f19603f3d011682016040523d82523d6000602084013e610842565b606091505b5091509150816108945760405162461bcd60e51b815260206004820152601c60248201527f46756e6374696f6e2063616c6c206e6f74207375636365737366756c0000000060448201526064016104ac565b7f5845892132946850460bff5a0083f71031bc5bf9aadcd40f1de79423eac9b10b8833896040516108c793929190611f13565b60405180910390a1979650505050505050565b6108eb6108e561106b565b826110fb565b6109075760405162461bcd60e51b81526004016104ac90611f48565b610706838383611179565b33600090815260ce602052604090205460ff166109415760405162461bcd60e51b81526004016104ac90611e6a565b60ca54805b826040013560ca546109589190611fab565b811015610a1c5761097561096f6020850185611cb3565b826111f6565b6109c0816109866080860186611fbe565b8080601f01602080910402602001604051908101604052809392919081815260200183838082843760009201919091525061137192505050565b600081815260cc6020526040902083906109da828261211b565b5050600081815260cc60205260409020600101546109fb9062786450611fab565b600082815260cd602052604090205580610a14816121b3565b915050610946565b50816040013560ca54610a2f9190611fab565b60ca8190557fdbe82851b2d09154f664d67cc6e17ef02f33aeacacff618708655761a1ec71b5908290610a64906001906121cc565b6040805192835260208301919091520160405180910390a15050565b61070683838360405180602001604052806000815250610d7d565b33600090815260ce602052604090205460ff16610aca5760405162461bcd60e51b81526004016104ac90611e6a565b610ad382610ffb565b610adc57600080fd5b600082815260cd602052604081208054839290610afa908490611fab565b90915550505050565b600080610b8088308989604051602001610b2094939291906121df565b60408051601f1981840301815282825280516020918201207f19457468657265756d205369676e6564204d6573736167653a0a33320000000084830152603c8085019190915282518085039091018152605c909301909152815191012090565b6040805160008082526020820180845284905260ff87169282019290925260608101889052608081018790529192509060019060a0016020604051602081039080840390855afa158015610bd8573d6000803e3d6000fd5b5050604051601f1901519150506001600160a01b038116610c2f5760405162461bcd60e51b8152602060048201526011602482015270496e76616c6964207369676e617475726560781b60448201526064016104ac565b6001600160a01b038a8116911614915050979650505050505050565b6000818152606760205260408120546001600160a01b0316806105255760405162461bcd60e51b8152602060048201526018602482015277115490cdcc8c4e881a5b9d985b1a59081d1bdad95b88125160421b60448201526064016104ac565b60006001600160a01b038216610d155760405162461bcd60e51b815260206004820152602960248201527f4552433732313a2061646472657373207a65726f206973206e6f7420612076616044820152683634b21037bbb732b960b91b60648201526084016104ac565b506001600160a01b031660009081526068602052604090205490565b60606066805461053a90611e86565b610d52610d4b61106b565b83836113f5565b5050565b6000610d6182610ffb565b610d6a57600080fd5b50600090815260cd602052604090205490565b610d8e610d8861106b565b836110fb565b610daa5760405162461bcd60e51b81526004016104ac90611f48565b610db6848484846114c3565b50505050565b60cb5460ff1615610df45760405162461bcd60e51b8152602060048201526002602482015261414960f01b60448201526064016104ac565b60cb805460ff1990811660019081179092556001600160a01b03909216600090815260ce602052604090208054909216811790915560ca55565b6060610e3982611018565b60008281526097602052604081208054610e5290611e86565b80601f0160208091040260200160405190810160405280929190818152602001828054610e7e90611e86565b8015610ecb5780601f10610ea057610100808354040283529160200191610ecb565b820191906000526020600020905b815481529060010190602001808311610eae57829003601f168201915b505050505090506000610ee960408051602081019091526000815290565b90508051600003610efb575092915050565b815115610f2d578082604051602001610f15929190612225565b60405160208183030381529060405292505050919050565b610f36846114f6565b949350505050565b33600090815260ce602052604090205460ff16610f6d5760405162461bcd60e51b81526004016104ac90611e6a565b610f7682610ffb565b610f7f57600080fd5b600082815260cc60205260409020600101548111610fc45760405162461bcd60e51b8152602060048201526002602482015261125160f21b60448201526064016104ac565b600082815260cc60205260409020600101819055610fe58162786450611fab565b600092835260cd60205260409092209190915550565b6000908152606760205260409020546001600160a01b0316151590565b61102181610ffb565b6110685760405162461bcd60e51b8152602060048201526018602482015277115490cdcc8c4e881a5b9d985b1a59081d1bdad95b88125160421b60448201526064016104ac565b50565b6000611075611569565b905090565b600081815260696020526040902080546001600160a01b0319166001600160a01b03841690811790915581906110af82610c4b565b6001600160a01b03167f8c5be1e5ebec7d5bd14f71427d1e84f3dd0314c0f7b2291e5b200ac8c7c3b92560405160405180910390a45050565b60006110f48284611fab565b9392505050565b60008061110783610c4b565b9050806001600160a01b0316846001600160a01b0316148061114e57506001600160a01b038082166000908152606a602090815260408083209388168352929052205460ff165b80610f365750836001600160a01b0316611167846105bd565b6001600160a01b031614949350505050565b33600090815260ce602052604090205460ff166111a85760405162461bcd60e51b81526004016104ac90611e6a565b600081815260cd60205260409020544211156111eb5760405162461bcd60e51b8152602060048201526002602482015261232760f11b60448201526064016104ac565b6107068383836115c7565b6001600160a01b03821661124c5760405162461bcd60e51b815260206004820181905260248201527f4552433732313a206d696e7420746f20746865207a65726f206164647265737360448201526064016104ac565b61125581610ffb565b156112a25760405162461bcd60e51b815260206004820152601c60248201527f4552433732313a20746f6b656e20616c7265616479206d696e7465640000000060448201526064016104ac565b6112b0600083836001611738565b6112b981610ffb565b156113065760405162461bcd60e51b815260206004820152601c60248201527f4552433732313a20746f6b656e20616c7265616479206d696e7465640000000060448201526064016104ac565b6001600160a01b038216600081815260686020908152604080832080546001019055848352606790915280822080546001600160a01b0319168417905551839291907fddf252ad1be2c89b69c2b068fc378daa952ba7f163c4a11628f55a4df523b3ef908290a45050565b61137a82610ffb565b6113dd5760405162461bcd60e51b815260206004820152602e60248201527f45524337323155524953746f726167653a2055524920736574206f66206e6f6e60448201526d32bc34b9ba32b73a103a37b5b2b760911b60648201526084016104ac565b60008281526097602052604090206107068282612254565b816001600160a01b0316836001600160a01b0316036114565760405162461bcd60e51b815260206004820152601960248201527f4552433732313a20617070726f766520746f2063616c6c65720000000000000060448201526064016104ac565b6001600160a01b038381166000818152606a6020908152604080832094871680845294825291829020805460ff191686151590811790915591519182527f17307eab39ab6107e8899845ad3d59bd9653f200f220920489ca2b5937696c31910160405180910390a3505050565b6114ce848484611179565b6114da848484846117c0565b610db65760405162461bcd60e51b81526004016104ac90612314565b606061150182611018565b600061151860408051602081019091526000815290565b9050600081511161153857604051806020016040528060008152506110f4565b80611542846118c8565b604051602001611553929190612225565b6040516020818303038152906040529392505050565b60003033036115bf57600080368080601f0160208091040260200160405190810160405280939291908181526020018383808284376000920191909152505050503601516001600160a01b031691506115c49050565b503390565b90565b826001600160a01b03166115da82610c4b565b6001600160a01b0316146116005760405162461bcd60e51b81526004016104ac90612366565b6001600160a01b0382166116625760405162461bcd60e51b8152602060048201526024808201527f4552433732313a207472616e7366657220746f20746865207a65726f206164646044820152637265737360e01b60648201526084016104ac565b61166f8383836001611738565b826001600160a01b031661168282610c4b565b6001600160a01b0316146116a85760405162461bcd60e51b81526004016104ac90612366565b600081815260696020908152604080832080546001600160a01b03199081169091556001600160a01b0387811680865260688552838620805460001901905590871680865283862080546001019055868652606790945282852080549092168417909155905184937fddf252ad1be2c89b69c2b068fc378daa952ba7f163c4a11628f55a4df523b3ef91a4505050565b6001811115610db6576001600160a01b0384161561177e576001600160a01b038416600090815260686020526040812080548392906117789084906121cc565b90915550505b6001600160a01b03831615610db6576001600160a01b038316600090815260686020526040812080548392906117b5908490611fab565b909155505050505050565b60006001600160a01b0384163b156118bd57836001600160a01b031663150b7a026117e961106b565b8786866040518563ffffffff1660e01b815260040161180b94939291906123ab565b6020604051808303816000875af1925050508015611846575060408051601f3d908101601f19168201909252611843918101906123e8565b60015b6118a3573d808015611874576040519150601f19603f3d011682016040523d82523d6000602084013e611879565b606091505b50805160000361189b5760405162461bcd60e51b81526004016104ac90612314565b805181602001fd5b6001600160e01b031916630a85bd0160e11b149050610f36565b506001949350505050565b606060006118d58361195b565b600101905060008167ffffffffffffffff8111156118f5576118f5611b45565b6040519080825280601f01601f19166020018201604052801561191f576020820181803683370190505b5090508181016020015b600019016f181899199a1a9b1b9c1cb0b131b232b360811b600a86061a8153600a850494508461192957509392505050565b60008072184f03e93ff9f4daa797ed6e38ed64bf6a1f0160401b831061199a5772184f03e93ff9f4daa797ed6e38ed64bf6a1f0160401b830492506040015b6d04ee2d6d415b85acef810000000083106119c6576d04ee2d6d415b85acef8100000000830492506020015b662386f26fc1000083106119e457662386f26fc10000830492506010015b6305f5e10083106119fc576305f5e100830492506008015b6127108310611a1057612710830492506004015b60648310611a22576064830492506002015b600a83106105255760010192915050565b60008060408385031215611a4657600080fd5b50508035926020909101359150565b6001600160e01b03198116811461106857600080fd5b600060208284031215611a7d57600080fd5b81356110f481611a55565b60005b83811015611aa3578181015183820152602001611a8b565b50506000910152565b60008151808452611ac4816020860160208601611a88565b601f01601f19169290920160200192915050565b6020815260006110f46020830184611aac565b600060208284031215611afd57600080fd5b5035919050565b6001600160a01b038116811461106857600080fd5b60008060408385031215611b2c57600080fd5b8235611b3781611b04565b946020939093013593505050565b634e487b7160e01b600052604160045260246000fd5b600082601f830112611b6c57600080fd5b813567ffffffffffffffff80821115611b8757611b87611b45565b604051601f8301601f19908116603f01168101908282118183101715611baf57611baf611b45565b81604052838152866020858801011115611bc857600080fd5b836020870160208301376000602085830101528094505050505092915050565b803560ff81168114611bf957600080fd5b919050565b600080600080600060a08688031215611c1657600080fd5b8535611c2181611b04565b9450602086013567ffffffffffffffff811115611c3d57600080fd5b611c4988828901611b5b565b9450506040860135925060608601359150611c6660808701611be8565b90509295509295909350565b600080600060608486031215611c8757600080fd5b8335611c9281611b04565b92506020840135611ca281611b04565b929592945050506040919091013590565b600060208284031215611cc557600080fd5b81356110f481611b04565b600060208284031215611ce257600080fd5b813567ffffffffffffffff811115611cf957600080fd5b820160a081850312156110f457600080fd5b600080600080600080600060e0888a031215611d2657600080fd5b8735611d3181611b04565b96506020880135955060408801359450606088013567ffffffffffffffff811115611d5b57600080fd5b611d678a828b01611b5b565b9450506080880135925060a08801359150611d8460c08901611be8565b905092959891949750929550565b60008060408385031215611da557600080fd5b8235611db081611b04565b915060208301358015158114611dc557600080fd5b809150509250929050565b60008060008060808587031215611de657600080fd5b8435611df181611b04565b93506020850135611e0181611b04565b925060408501359150606085013567ffffffffffffffff811115611e2457600080fd5b611e3087828801611b5b565b91505092959194509250565b60008060408385031215611e4f57600080fd5b8235611e5a81611b04565b91506020830135611dc581611b04565b602080825260029082015261494360f01b604082015260600190565b600181811c90821680611e9a57607f821691505b602082108103611eba57634e487b7160e01b600052602260045260246000fd5b50919050565b60008351611ed2818460208801611a88565b60609390931b6bffffffffffffffffffffffff19169190920190815260140192915050565b60008251611f09818460208701611a88565b9190910192915050565b6001600160a01b03848116825283166020820152606060408201819052600090611f3f90830184611aac565b95945050505050565b6020808252602d908201527f4552433732313a2063616c6c6572206973206e6f7420746f6b656e206f776e6560408201526c1c881bdc88185c1c1c9bdd9959609a1b606082015260800190565b634e487b7160e01b600052601160045260246000fd5b8082018082111561052557610525611f95565b6000808335601e19843603018112611fd557600080fd5b83018035915067ffffffffffffffff821115611ff057600080fd5b60200191503681900382131561200557600080fd5b9250929050565b601f82111561070657600081815260208120601f850160051c810160208610156120335750805b601f850160051c820191505b818110156120525782815560010161203f565b505050505050565b67ffffffffffffffff83111561207257612072611b45565b612086836120808354611e86565b8361200c565b6000601f8411600181146120ba57600085156120a25750838201355b600019600387901b1c1916600186901b178355612114565b600083815260209020601f19861690835b828110156120eb57868501358255602094850194600190920191016120cb565b50868210156121085760001960f88860031b161c19848701351681555b505060018560011b0183555b5050505050565b813561212681611b04565b81546001600160a01b0319166001600160a01b0391909116178155602082013560018201556040820135600282015560608201356003820155608082013536839003601e1901811261217757600080fd5b8201803567ffffffffffffffff81111561219057600080fd5b6020820191508036038213156121a557600080fd5b610db681836004860161205a565b6000600182016121c5576121c5611f95565b5060010190565b8181038181111561052557610525611f95565b8481526bffffffffffffffffffffffff198460601b16602082015282603482015260008251612215816054850160208701611a88565b9190910160540195945050505050565b60008351612237818460208801611a88565b83519083019061224b818360208801611a88565b01949350505050565b815167ffffffffffffffff81111561226e5761226e611b45565b6122828161227c8454611e86565b8461200c565b602080601f8311600181146122b7576000841561229f5750858301515b600019600386901b1c1916600185901b178555612052565b600085815260208120601f198616915b828110156122e6578886015182559484019460019091019084016122c7565b50858210156123045787850151600019600388901b60f8161c191681555b5050505050600190811b01905550565b60208082526032908201527f4552433732313a207472616e7366657220746f206e6f6e20455243373231526560408201527131b2b4bb32b91034b6b83632b6b2b73a32b960711b606082015260800190565b60208082526025908201527f4552433732313a207472616e736665722066726f6d20696e636f72726563742060408201526437bbb732b960d91b606082015260800190565b6001600160a01b03858116825284166020820152604081018390526080606082018190526000906123de90830184611aac565b9695505050505050565b6000602082840312156123fa57600080fd5b81516110f481611a5556fea26469706673582212202f59dd8e6ddc98e840204577bf797f027b3720186316109b6e82f5f9585f943664736f6c63430008110033",
    "linkReferences": {}
  },
  "methodIdentifiers": {
    "approve(address,uint256)": "095ea7b3",
    "balanceOf(address)": "70a08231",
    "bulkMint((address,uint256,uint256,uint256,string))": "3c4615dd",
    "changeReleaseDate(uint256,uint256)": "f71480c6",
    "checkDeadline(uint256)": "a6990946",
    "executeMetaTransaction(address,bytes,bytes32,bytes32,uint8)": "0c53c51c",
    "getApproved(uint256)": "081812fc",
    "getChainID()": "564b81ef",
    "getNonce(address)": "2d0335ab",
    "increaseDeadline(uint256,uint256)": "4c764db7",
    "initialize(address)": "c4d66de8",
    "isApprovedForAll(address,address)": "e985e9c5",
    "name()": "06fdde03",
    "ownerOf(uint256)": "6352211e",
    "safeTransferFrom(address,address,uint256)": "42842e0e",
    "safeTransferFrom(address,address,uint256,bytes)": "b88d4fde",
    "setApprovalForAll(address,bool)": "a22cb465",
    "setDeadline(uint256,uint256)": "009a0b30",
    "supportsInterface(bytes4)": "01ffc9a7",
    "symbol()": "95d89b41",
    "tokenURI(uint256)": "c87b56dd",
    "transferFrom(address,address,uint256)": "23b872dd",
    "verify(address,uint256,uint256,bytes,bytes32,bytes32,uint8)": "6281133d"
  },
  "id": 23
}