{
  "abi": [
    {
      "anonymous": false,
      "inputs": [
        {
          "indexed": false,
          "internalType": "address",
          "name": "userAddress",
          "type": "address"
        },
        {
          "indexed": false,
          "internalType": "address payable",
          "name": "relayerAddress",
          "type": "address"
        },
        {
          "indexed": false,
          "internalType": "bytes",
          "name": "functionSignature",
          "type": "bytes"
        }
      ],
      "name": "MetaTransactionExecuted",
      "type": "event"
    },
    {
      "inputs": [
        {
          "components": [
            {
              "internalType": "address",
              "name": "winery",
              "type": "address"
            },
            {
              "internalType": "address",
              "name": "seller",
              "type": "address"
            },
            {
              "internalType": "uint256[]",
              "name": "tokenIds",
              "type": "uint256[]"
            },
            {
              "internalType": "uint256",
              "name": "price",
              "type": "uint256"
            },
            {
              "internalType": "uint256",
              "name": "amount",
              "type": "uint256"
            }
          ],
          "internalType": "struct Struct.NFTSell",
          "name": "sell",
          "type": "tuple"
        },
        {
          "internalType": "uint256",
          "name": "amount",
          "type": "uint256"
        }
      ],
      "name": "buyNFT",
      "outputs": [],
      "stateMutability": "nonpayable",
      "type": "function"
    },
    {
      "inputs": [
        {
          "internalType": "uint256",
          "name": "tokenId",
          "type": "uint256"
        },
        {
          "internalType": "uint256",
          "name": "_planNumber",
          "type": "uint256"
        }
      ],
      "name": "buyStorage",
      "outputs": [],
      "stateMutability": "nonpayable",
      "type": "function"
    },
    {
      "inputs": [
        {
          "internalType": "uint256",
          "name": "tokenId",
          "type": "uint256"
        },
        {
          "internalType": "uint256",
          "name": "_newDate",
          "type": "uint256"
        }
      ],
      "name": "changereleaseDate",
      "outputs": [],
      "stateMutability": "nonpayable",
      "type": "function"
    },
    {
      "inputs": [
        {
          "components": [
            {
              "internalType": "address",
              "name": "winery",
              "type": "address"
            },
            {
              "internalType": "uint256",
              "name": "releaseDate",
              "type": "uint256"
            },
            {
              "internalType": "uint256",
              "name": "amount",
              "type": "uint256"
            },
            {
              "internalType": "uint256",
              "name": "royaltyAmount",
              "type": "uint256"
            },
            {
              "internalType": "string",
              "name": "URI",
              "type": "string"
            }
          ],
          "internalType": "struct Struct.NFTData",
          "name": "NFT",
          "type": "tuple"
        }
      ],
      "name": "createNFT",
      "outputs": [],
      "stateMutability": "nonpayable",
      "type": "function"
    },
    {
      "inputs": [
        {
          "components": [
            {
              "internalType": "uint256",
              "name": "months",
              "type": "uint256"
            },
            {
              "internalType": "uint256",
              "name": "price",
              "type": "uint256"
            }
          ],
          "internalType": "struct Struct.planDetails",
          "name": "_planDetails",
          "type": "tuple"
        }
      ],
      "name": "createPlan",
      "outputs": [],
      "stateMutability": "nonpayable",
      "type": "function"
    },
    {
      "inputs": [
        {
          "internalType": "address",
          "name": "userAddress",
          "type": "address"
        },
        {
          "internalType": "bytes",
          "name": "functionSignature",
          "type": "bytes"
        },
        {
          "internalType": "bytes32",
          "name": "sigR",
          "type": "bytes32"
        },
        {
          "internalType": "bytes32",
          "name": "sigS",
          "type": "bytes32"
        },
        {
          "internalType": "uint8",
          "name": "sigV",
          "type": "uint8"
        }
      ],
      "name": "executeMetaTransaction",
      "outputs": [
        {
          "internalType": "bytes",
          "name": "",
          "type": "bytes"
        }
      ],
      "stateMutability": "payable",
      "type": "function"
    },
    {
      "inputs": [],
      "name": "getChainID",
      "outputs": [
        {
          "internalType": "uint256",
          "name": "",
          "type": "uint256"
        }
      ],
      "stateMutability": "view",
      "type": "function"
    },
    {
      "inputs": [
        {
          "internalType": "address",
          "name": "user",
          "type": "address"
        }
      ],
      "name": "getNonce",
      "outputs": [
        {
          "internalType": "uint256",
          "name": "nonce",
          "type": "uint256"
        }
      ],
      "stateMutability": "view",
      "type": "function"
    },
    {
      "inputs": [
        {
          "internalType": "address",
          "name": "_NFTContract",
          "type": "address"
        },
        {
          "internalType": "address",
          "name": "_admin",
          "type": "address"
        },
        {
          "internalType": "address",
          "name": "_usdc",
          "type": "address"
        }
      ],
      "name": "initialize",
      "outputs": [],
      "stateMutability": "nonpayable",
      "type": "function"
    },
    {
      "inputs": [
        {
          "internalType": "uint256",
          "name": "tokenId",
          "type": "uint256"
        },
        {
          "internalType": "uint256",
          "name": "_planNumber",
          "type": "uint256"
        }
      ],
      "name": "renewStorage",
      "outputs": [],
      "stateMutability": "nonpayable",
      "type": "function"
    },
    {
      "inputs": [],
      "name": "usdc",
      "outputs": [
        {
          "internalType": "contract IERC20",
          "name": "",
          "type": "address"
        }
      ],
      "stateMutability": "view",
      "type": "function"
    },
    {
      "inputs": [
        {
          "internalType": "address",
          "name": "owner",
          "type": "address"
        },
        {
          "internalType": "uint256",
          "name": "nonce",
          "type": "uint256"
        },
        {
          "internalType": "uint256",
          "name": "chainID",
          "type": "uint256"
        },
        {
          "internalType": "bytes",
          "name": "functionSignature",
          "type": "bytes"
        },
        {
          "internalType": "bytes32",
          "name": "sigR",
          "type": "bytes32"
        },
        {
          "internalType": "bytes32",
          "name": "sigS",
          "type": "bytes32"
        },
        {
          "internalType": "uint8",
          "name": "sigV",
          "type": "uint8"
        }
      ],
      "name": "verify",
      "outputs": [
        {
          "internalType": "bool",
          "name": "",
          "type": "bool"
        }
      ],
      "stateMutability": "view",
      "type": "function"
    }
  ],
  "bytecode": {
    "object": "0x608060405234801561001057600080fd5b50611e17806100206000396000f3fe6080604052600436106100a75760003560e01c80634092aee9116100645780634092aee9146101b3578063564b81ef146101d35780636281133d146101e6578063a269ce0214610216578063c0c53b8b14610236578063cc6ac0f41461025657600080fd5b80630c53c51c146100ac5780631677455e146100d557806323815f0c146100f75780632d0335ab146101175780633b962c531461015b5780633e413bee1461017b575b600080fd5b6100bf6100ba36600461175b565b610276565b6040516100cc919061181d565b60405180910390f35b3480156100e157600080fd5b506100f56100f0366004611848565b610448565b005b34801561010357600080fd5b506100f561011236600461188d565b610cf0565b34801561012357600080fd5b5061014d6101323660046118ca565b6001600160a01b031660009081526020819052604090205490565b6040519081526020016100cc565b34801561016757600080fd5b506100f56101763660046118e5565b610dec565b34801561018757600080fd5b5060045461019b906001600160a01b031681565b6040516001600160a01b0390911681526020016100cc565b3480156101bf57600080fd5b506100f56101ce3660046118e5565b611177565b3480156101df57600080fd5b504661014d565b3480156101f257600080fd5b50610206610201366004611907565b61120d565b60405190151581526020016100cc565b34801561022257600080fd5b506100f561023136600461198c565b611355565b34801561024257600080fd5b506100f561025136600461199e565b61142c565b34801561026257600080fd5b506100f56102713660046118e5565b6114bd565b6001600160a01b0385166000908152602081905260409020546060906102a2908790468888888861120d565b6102fd5760405162461bcd60e51b815260206004820152602160248201527f5369676e657220616e64207369676e617475726520646f206e6f74206d6174636044820152600d60fb1b60648201526084015b60405180910390fd5b6001600160a01b038616600090815260208190526040902054610321906001611553565b6001600160a01b038716600090815260208181526040808320939093559151909182913091610354918a918c91016119e1565b60408051601f198184030181529082905261036e91611a18565b6000604051808303816000865af19150503d80600081146103ab576040519150601f19603f3d011682016040523d82523d6000602084013e6103b0565b606091505b5091509150816104025760405162461bcd60e51b815260206004820152601c60248201527f46756e6374696f6e2063616c6c206e6f74207375636365737366756c0000000060448201526064016102f4565b7f5845892132946850460bff5a0083f71031bc5bf9aadcd40f1de79423eac9b10b88338960405161043593929190611a34565b60405180910390a1979650505050505050565b600061045760208401846118ca565b6001600160a01b03160361047d5760405162461bcd60e51b81526004016102f490611a69565b600061048f60408401602085016118ca565b6001600160a01b0316036104b55760405162461bcd60e51b81526004016102f490611a69565b6104c260208301836118ca565b6001600160a01b03166104db60408401602085016118ca565b6001600160a01b0316036106ff576104fb6104f583611a85565b82611568565b6004546002546001600160a01b03918216916323b872dd91339116610524606087013586611b7f565b6040518463ffffffff1660e01b815260040161054293929190611b96565b6020604051808303816000875af1158015610561573d6000803e3d6000fd5b505050506040513d601f19601f820116820180604052508101906105859190611bba565b506000600a8161059b60408601602087016118ca565b6001600160a01b03166001600160a01b031681526020019081526020016000205490505b81600a60006105d460408701602088016118ca565b6001600160a01b03166001600160a01b03168152602001908152602001600020546105ff9190611be3565b8110156106af576001546001600160a01b03166323b872dd61062760408601602087016118ca565b336106356040880188611bf6565b8681811061064557610645611c47565b905060200201356040518463ffffffff1660e01b815260040161066a93929190611b96565b600060405180830381600087803b15801561068457600080fd5b505af1158015610698573d6000803e3d6000fd5b5050505080806106a790611c5d565b9150506105bf565b5080600a60006106c560408601602087016118ca565b6001600160a01b03166001600160a01b0316815260200190815260200160002060008282546106f49190611be3565b90915550610cec9050565b6000808061071561070f86611a85565b85611568565b6000610725606087013586611b7f565b6004546002549192506001600160a01b03908116916323b872dd91339116606461075086600a611b7f565b61075a9190611c76565b6040518463ffffffff1660e01b815260040161077893929190611b96565b6020604051808303816000875af1158015610797573d6000803e3d6000fd5b505050506040513d601f19601f820116820180604052508101906107bb9190611bba565b506004546001600160a01b03166323b872dd336107db60208a018a6118ca565b60646107e8866014611b7f565b6107f29190611c76565b6040518463ffffffff1660e01b815260040161081093929190611b96565b6020604051808303816000875af115801561082f573d6000803e3d6000fd5b505050506040513d601f19601f820116820180604052508101906108539190611bba565b506004546001600160a01b03166323b872dd3361087660408a0160208b016118ca565b606461088386601e611b7f565b61088d9190611c76565b6108979086611c98565b6040518463ffffffff1660e01b81526004016108b593929190611b96565b6020604051808303816000875af11580156108d4573d6000803e3d6000fd5b505050506040513d601f19601f820116820180604052508101906108f89190611bba565b506000600a8161090e60408a0160208b016118ca565b6001600160a01b03166001600160a01b031681526020019081526020016000205490505b85600a600061094760408b0160208c016118ca565b6001600160a01b03166001600160a01b03168152602001908152602001600020546109729190611be3565b811015610c11576001546001600160a01b03166323b872dd61099a60408a0160208b016118ca565b336109a860408c018c611bf6565b868181106109b8576109b8611c47565b905060200201356040518463ffffffff1660e01b81526004016109dd93929190611b96565b600060405180830381600087803b1580156109f757600080fd5b505af1158015610a0b573d6000803e3d6000fd5b5050600154620d2f0092504291506001600160a01b031663a6990946610a3460408c018c611bf6565b86818110610a4457610a44611c47565b905060200201356040518263ffffffff1660e01b8152600401610a6991815260200190565b602060405180830381865afa158015610a86573d6000803e3d6000fd5b505050506040513d601f19601f82011682018060405250810190610aaa9190611cab565b610ab49190611c98565b610abe9190611c76565b610ac9906001611be3565b9450846201518060066000610ae160408c018c611bf6565b86818110610af157610af1611c47565b90506020020135815260200190815260200160002060000154610b149190611c76565b60066000610b2560408c018c611bf6565b86818110610b3557610b35611c47565b90506020020135815260200190815260200160002060010154610b589190611c76565b610b629190611b7f565b9350610b6e8484611be3565b6001549093506001600160a01b0316629a0b30610b8e60408a018a611bf6565b84818110610b9e57610b9e611c47565b90506020020135426040518363ffffffff1660e01b8152600401610bcc929190918252602082015260400190565b600060405180830381600087803b158015610be657600080fd5b505af1158015610bfa573d6000803e3d6000fd5b505050508080610c0990611c5d565b915050610932565b506004546002546001600160a01b03918216916323b872dd9116610c3b60408a0160208b016118ca565b856040518463ffffffff1660e01b8152600401610c5a93929190611b96565b6020604051808303816000875af1158015610c79573d6000803e3d6000fd5b505050506040513d601f19601f82011682018060405250810190610c9d9190611bba565b5084600a6000610cb360408a0160208b016118ca565b6001600160a01b03166001600160a01b031681526020019081526020016000206000828254610ce29190611be3565b9091555050505050505b5050565b6002546001600160a01b03163314610d1a5760405162461bcd60e51b81526004016102f490611cc4565b6000610d2960208301836118ca565b6001600160a01b031603610d4f5760405162461bcd60e51b81526004016102f490611a69565b42816020013511610d875760405162461bcd60e51b8152602060048201526002602482015261125160f21b60448201526064016102f4565b600154604051633c4615dd60e01b81526001600160a01b0390911690633c4615dd90610db7908490600401611d09565b600060405180830381600087803b158015610dd157600080fd5b505af1158015610de5573d6000803e3d6000fd5b5050505050565b60015460405163534c84a360e11b8152600481018490526001600160a01b039091169063a699094690602401602060405180830381865afa158015610e35573d6000803e3d6000fd5b505050506040513d601f19601f82011682018060405250810190610e599190611cab565b42111561104b5760015460405163534c84a360e11b8152600481018490526000916001600160a01b03169063a699094690602401602060405180830381865afa158015610eaa573d6000803e3d6000fd5b505050506040513d601f19601f82011682018060405250810190610ece9190611cab565b610ed89042611c98565b60008381526005602052604081205491925090610ef59083611c76565b610f00906001611be3565b60008481526005602081815260408084208985526006835290842081548155600191820154910181905560045460025494899052929091529293506001600160a01b03908116926323b872dd9233921690610f5c908690611b7f565b6040518463ffffffff1660e01b8152600401610f7a93929190611b96565b6020604051808303816000875af1158015610f99573d6000803e3d6000fd5b505050506040513d601f19601f82011682018060405250810190610fbd9190611bba565b506001546000848152600560205260409020546001600160a01b0390911690634c764db7908690610fef908590611be3565b6040516001600160e01b031960e085901b16815260048101929092526024820152604401600060405180830381600087803b15801561102d57600080fd5b505af1158015611041573d6000803e3d6000fd5b5050505050505050565b60048054600254600084815260056020526040908190206001015490516323b872dd60e01b81526001600160a01b03938416946323b872dd94611095943394911692909101611b96565b6020604051808303816000875af11580156110b4573d6000803e3d6000fd5b505050506040513d601f19601f820116820180604052508101906110d89190611bba565b50600081815260056020818152604080842086855260068352818520815481556001808301549181019190915554948690529290915290549051634c764db760e01b81526004810185905260248101919091526001600160a01b0390911690634c764db7906044015b600060405180830381600087803b15801561115b57600080fd5b505af115801561116f573d6000803e3d6000fd5b505050505050565b6002546001600160a01b031633146111a15760405162461bcd60e51b81526004016102f490611cc4565b600081815260056020818152604080842086855260068352818520815481556001808301549181019190915554948690529290915290549051634c764db760e01b81526004810185905260248101919091526001600160a01b0390911690634c764db790604401611141565b60008061128a8830898960405160200161122a9493929190611d9b565b60408051601f1981840301815282825280516020918201207f19457468657265756d205369676e6564204d6573736167653a0a33320000000084830152603c8085019190915282518085039091018152605c909301909152815191012090565b6040805160008082526020820180845284905260ff87169282019290925260608101889052608081018790529192509060019060a0016020604051602081039080840390855afa1580156112e2573d6000803e3d6000fd5b5050604051601f1901519150506001600160a01b0381166113395760405162461bcd60e51b8152602060048201526011602482015270496e76616c6964207369676e617475726560781b60448201526064016102f4565b6001600160a01b038a8116911614915050979650505050505050565b6002546001600160a01b0316331461137f5760405162461bcd60e51b81526004016102f490611cc4565b80356000036113b55760405162461bcd60e51b815260206004820152600260248201526124ab60f11b60448201526064016102f4565b80602001356000036113ee5760405162461bcd60e51b815260206004820152600260248201526124ab60f11b60448201526064016102f4565b60038054600090815260056020908152604080832085359055835483528220908401356001909101558154919061142483611c5d565b919050555050565b6001600160a01b0383161580159061144c57506001600160a01b03821615155b801561146057506001600160a01b03811615155b61147c5760405162461bcd60e51b81526004016102f490611a69565b600180546001600160a01b039485166001600160a01b0319918216178255600280549486169482169490941790935560035560048054919093169116179055565b6002546001600160a01b031633146114e75760405162461bcd60e51b81526004016102f490611cc4565b42811161151b5760405162461bcd60e51b8152602060048201526002602482015261125160f21b60448201526064016102f4565b600154604051637b8a406360e11b815260048101849052602481018390526001600160a01b039091169063f71480c690604401611141565b600061155f8284611be3565b90505b92915050565b6020808301516001600160a01b031660009081526009909152604090205460ff16156115bb5760405162461bcd60e51b8152602060048201526002602482015261415360f01b60448201526064016102f4565b81516001600160a01b0316600090815260086020526040812054908190036115f4578183608001516115ed9190611c98565b9050611601565b6115fe8282611c98565b90505b82516001600160a01b031660009081526008602052604081208290558190036116495782516001600160a01b03166000908152600960205260409020805460ff191660011790555b505050565b80356001600160a01b038116811461166557600080fd5b919050565b634e487b7160e01b600052604160045260246000fd5b60405160a0810167ffffffffffffffff811182821017156116a3576116a361166a565b60405290565b604051601f8201601f1916810167ffffffffffffffff811182821017156116d2576116d261166a565b604052919050565b600082601f8301126116eb57600080fd5b813567ffffffffffffffff8111156117055761170561166a565b611718601f8201601f19166020016116a9565b81815284602083860101111561172d57600080fd5b816020850160208301376000918101602001919091529392505050565b803560ff8116811461166557600080fd5b600080600080600060a0868803121561177357600080fd5b61177c8661164e565b9450602086013567ffffffffffffffff81111561179857600080fd5b6117a4888289016116da565b94505060408601359250606086013591506117c16080870161174a565b90509295509295909350565b60005b838110156117e85781810151838201526020016117d0565b50506000910152565b600081518084526118098160208601602086016117cd565b601f01601f19169290920160200192915050565b60208152600061155f60208301846117f1565b600060a0828403121561184257600080fd5b50919050565b6000806040838503121561185b57600080fd5b823567ffffffffffffffff81111561187257600080fd5b61187e85828601611830565b95602094909401359450505050565b60006020828403121561189f57600080fd5b813567ffffffffffffffff8111156118b657600080fd5b6118c284828501611830565b949350505050565b6000602082840312156118dc57600080fd5b61155f8261164e565b600080604083850312156118f857600080fd5b50508035926020909101359150565b600080600080600080600060e0888a03121561192257600080fd5b61192b8861164e565b96506020880135955060408801359450606088013567ffffffffffffffff81111561195557600080fd5b6119618a828b016116da565b9450506080880135925060a0880135915061197e60c0890161174a565b905092959891949750929550565b60006040828403121561184257600080fd5b6000806000606084860312156119b357600080fd5b6119bc8461164e565b92506119ca6020850161164e565b91506119d86040850161164e565b90509250925092565b600083516119f38184602088016117cd565b60609390931b6bffffffffffffffffffffffff19169190920190815260140192915050565b60008251611a2a8184602087016117cd565b9190910192915050565b6001600160a01b03848116825283166020820152606060408201819052600090611a60908301846117f1565b95945050505050565b6020808252600290820152615a4160f01b604082015260600190565b600060a08236031215611a9757600080fd5b611a9f611680565b611aa88361164e565b81526020611ab781850161164e565b81830152604084013567ffffffffffffffff80821115611ad657600080fd5b9085019036601f830112611ae957600080fd5b813581811115611afb57611afb61166a565b8060051b9150611b0c8483016116a9565b8181529183018401918481019036841115611b2657600080fd5b938501935b83851015611b4457843582529385019390850190611b2b565b6040870152505050505060608381013590820152608092830135928101929092525090565b634e487b7160e01b600052601160045260246000fd5b808202811582820484141761156257611562611b69565b6001600160a01b039384168152919092166020820152604081019190915260600190565b600060208284031215611bcc57600080fd5b81518015158114611bdc57600080fd5b9392505050565b8082018082111561156257611562611b69565b6000808335601e19843603018112611c0d57600080fd5b83018035915067ffffffffffffffff821115611c2857600080fd5b6020019150600581901b3603821315611c4057600080fd5b9250929050565b634e487b7160e01b600052603260045260246000fd5b600060018201611c6f57611c6f611b69565b5060010190565b600082611c9357634e487b7160e01b600052601260045260246000fd5b500490565b8181038181111561156257611562611b69565b600060208284031215611cbd57600080fd5b5051919050565b6020808252600290820152614e4160f01b604082015260600190565b81835281816020850137506000828201602090810191909152601f909101601f19169091010190565b602081526001600160a01b03611d1e8361164e565b16602082015260208201356040820152604082013560608201526060820135608082015260006080830135601e19843603018112611d5b57600080fd5b830160208101903567ffffffffffffffff811115611d7857600080fd5b803603821315611d8757600080fd5b60a080850152611a6060c085018284611ce0565b8481526bffffffffffffffffffffffff198460601b16602082015282603482015260008251611dd18160548501602087016117cd565b919091016054019594505050505056fea264697066735822122035911ddb4b95c3e23cf81eb54608fc90b288dd75966e399b30154eb514dfa9c064736f6c63430008110033",
    "linkReferences": {}
  },
  "methodIdentifiers": {
    "buyNFT((address,address,uint256[],uint256,uint256),uint256)": "1677455e",
    "buyStorage(uint256,uint256)": "3b962c53",
    "changereleaseDate(uint256,uint256)": "cc6ac0f4",
    "createNFT((address,uint256,uint256,uint256,string))": "23815f0c",
    "createPlan((uint256,uint256))": "a269ce02",
    "executeMetaTransaction(address,bytes,bytes32,bytes32,uint8)": "0c53c51c",
    "getChainID()": "564b81ef",
    "getNonce(address)": "2d0335ab",
    "initialize(address,address,address)": "c0c53b8b",
    "renewStorage(uint256,uint256)": "4092aee9",
    "usdc()": "3e413bee",
    "verify(address,uint256,uint256,bytes,bytes32,bytes32,uint8)": "6281133d"
  },
  "id": 26
}